:020000040800F2
:10000000000001201D0400086D0400086D040008B4
:100010006D0400086D0400086D0400080000000075
:100020000000000000000000000000006D04000857
:100030006D040008000000006D0400086D04000855
:10004000000000006D0400086D0400086D04000845
:100050006D0400086D0400086D0400086D040008BC
:100060006D0400086D0400086D0400080000000025
:100070000000000000000000000000000000000080
:1000800000000000000000006D04000800000000F7
:100090000000000000000000000000006D040008E7
:1000A0006D0400086D0400086D0400086D0400086C
:1000B0006D0400086D040008000000006D040008D5
:1000C0006D0400086D0400086D0400086D0400084C
:1000D0006D040008000000000000000000000000A7
:1000E0006D0400086D0400086D04000800000000A5
:1000F0000000000000000000000000000000000000
:10010000000000006D040008000000006D040008FD
:1001100000000000000000000000000000000000DF
:1001200000000000000000000000000000000000CF
:1001300000000000000000000000000000000000BF
:100140000000000000000000000000006D04000836
:10015000000000000000000000000000000000009F
:100160006D0400086D04000800000000000000009D
:10017000000000000000000000000000000000007F
:10018000000000006D0400080000000000000000F6
:040190006D040008F2
:1001940010B5054C237833B9044B13B10448AFF3BD
:1001A40000800123237010BD2C04002000000000F7
:1001B400D405000808B5034B1BB103490348AFF34A
:1001C400008008BD0000000030040020D4050008B1
:1001D40080B487B000AF324B1B68314A43F002034E
:1001E4001360304B1B682F4A23F0800313602D4BA0
:1001F4001B682C4A43F4A84313602B4B00221A605B
:100204002A4B1B68294A43F040031360284B002201
:100214001A6001237B61274B1B6803F008037B6092
:100224007B68002B1DD100233B6102E03B69013355
:100234003B613B694CF24F329342F7DD1D4B1B6827
:1002440003F008037B607B68002B0AD17B6903F011
:1002540007037B61164A7B695B0113607B69013389
:100264007B610023FB6002E0FB680133FB60FB68F9
:10027400B3F57A7FF8DB0F4B1B6803F00803002B00
:1002840000D1EEE700BF0023BB6002E0BB6801338E
:10029400BB60BB6842F20F729342F7DDBBE700BF5D
:1002A4003038024000040240040402400C040240BE
:1002B400140402401004024080B500AF164BD3F87A
:1002C4008830154A43F47003C2F88830134B1B6816
:1002D400124A43F001031360104B00229A600F4B43
:1002E4001B680E4A23F0847323F4803313600B4B92
:1002F4000B4A5A60094B1B68084A23F48023136095
:10030400064B0022DA6000F00DF8034B4FF0006258
:100314009A6000BF80BD00BF00ED00E000380240DD
:100324001030002480B483B000AF00237B6000232E
:100334003B60354B1B68344A43F480331360324BC3
:100344001B6803F400333B607B6801337B603B68CC
:10035400002B03D17B68B3F5A04FF0D12A4B1B6867
:1003640003F40033002B02D001233B6001E000239F
:100374003B603B68012B40D1234B1B6C224A43F06A
:1003840080531364214B1B68204A43F44043136099
:100394001D4B1D4A9B6893601B4B1B4A9B689360D3
:1003A400194B9B68184A43F480539360164B184AC0
:1003B4005A60154B1B68144A43F08073136000BFE6
:1003C400114B1B6803F00073002BF9D0114B40F262
:1003D40002721A600C4B9B680B4A23F00303936070
:1003E400094B9B68084A43F00203936000BF064B25
:1003F4009B6803F00C03082BF9D100BF0C37BD46F2
:100404005DF8047B704700BF003802400070004074
:1004140019544107003C02400D4885460D480E49D9
:100424000E4A002302E0D458C4500433C4188C424A
:10043400F9D30B4A0B4C002301E013600432A242AF
:10044400FBD3FFF739FF00F011F8FFF7C1FEFEE719
:1004540000000120000000202C040020FC050008FE
:100464002C0400206C040020FEE7000070B50D4E43
:100474000D4D761BB61006D00024013455F8043B0C
:100484009847A642F9D1094E094D761B00F0A0F811
:10049400B61006D00024013455F8043B9847A64210
:1004A400F9D170BDF0050008F0050008F805000852
:1004B400F0050008024B13B1024800F005B870477C
:1004C40000000000D9040008002301461A4618461B
:1004D40000F01EB838B50A4C0A4D641BA4100AD0AB
:1004E40004F18043013B05EB8305013C55F80439D5
:1004F4009847002CF9D1BDE8384000F06FB800BF30
:10050400FC050008F8050008704700BF704700BFED
:100514002DE9F8432B4D0646286898460F46914628
:10052400FFF7F2FF284B1C68D4F84831002B3DD06C
:100534005A681F2A0DDC02F1010C16BB0232C3F803
:1005440004C0286843F82270FFF7E0FF0020BDE8EC
:10055400F8831E4B7BB34FF4C870AFF3008003469F
:1005640048B3D4F848210021C0E900214FF0010C20
:10057400C4F848010A46C0F88811C0F88C11002E4E
:10058400DCD003EB82010124C1F88890D3F8880100
:1005940094402043022EC3F88801C1F80881CDD1CC
:1005A400D3F88C110C43C3F88C41C7E704F5A67348
:1005B400C4F84831BCE72868FFF7A8FF4FF0FF30C4
:1005C400C5E700BF28040020EC0500080000000077
:1005D400F8B500BFF8BC08BC9E467047F8B500BF2C
:0805E400F8BC08BC9E467047FC
:0405EC0000000020EB
:0805F000B9040008B90100087C
:0405F8009501000861
:1005FC0000000000EC02002054030020BC0300208B
:10060C0000000000000000000000000000000000DE
:10061C0000000000000000000000000000000000CE
:10062C0000000000000000000000000000000000BE
:10063C0000000000000000000000000000000000AE
:10064C00000000000000000000000000000000009E
:10065C00000000000000000000000000000000008E
:10066C00000000000000000000000000000000007E
:10067C00000000000000000000000000000000006E
:10068C00000000000000000000000000000000005E
:10069C00000000000000000001000000000000004D
:1006AC000E33CDAB34126DE6ECDE05000B00000012
:1006BC00000000000000000000000000000000002E
:1006CC00000000000000000000000000000000001E
:1006DC00000000000000000000000000000000000E
:1006EC0000000000000000000000000000000000FE
:0C0A1C0000000000000000004804002062
:040000050800041DCE
:00000001FF
