:020000040800F2
:1000000000000120E1060008310700083107000860
:100010003107000831070008310700080000000020
:100020000000000000000000000000003107000890
:100030003107000800000000310700083107000800
:1000400000000000310700083107000831070008F0
:100050003107000831070008E504000839050008E9
:1000600031070008310700083107000800000000D0
:100070000000000000000000000000000000000080
:100080000000000000000000310700080000000030
:100090000000000000000000000000003107000820
:1000A0003107000831070008310700083107000850
:1000B0003107000831070008000000003107000880
:1000C0003107000831070008310700083107000830
:1000D00031070008000000000000000000000000E0
:1000E0003107000831070008310700080000000050
:1000F0000000000000000000000000000000000000
:10010000000000003107000800000000310700086F
:1001100000000000000000000000000000000000DF
:1001200000000000000000000000000000000000CF
:1001300000000000000000000000000000000000BF
:10014000000000000000000000000000310700086F
:10015000000000000000000000000000000000009F
:10016000310700083107000800000000000000000F
:10017000000000000000000000000000000000007F
:10018000000000003107000800000000000000002F
:04019000310700082B
:1001940010B5054C237833B9044B13B10448AFF3BD
:1001A40000800123237010BD2C04002000000000F7
:1001B4009808000808B5034B1BB103490348AFF383
:1001C400008008BD000000003004002098080008EA
:1001D40080B483B000AF7860084611461A460346DF
:1001E400FB700B46BB7013467B702B4B1A6B7B78F2
:1001F400012101FA03F3284913430B63BB78002B55
:1002040016D07B681A68FB785B00012101FA03F3BE
:100214001A437B681A607B681A68FB785B000133B9
:10022400012101FA03F3DB431A407B681A602CE0D6
:100234007B681A68FB785B00012101FA03F3DB4356
:100244001A407B681A607B681A68FB785B0001338C
:10025400012101FA03F3DB431A407B681A607B68CF
:10026400DA68FB785B000133012101FA03F3DB4315
:100274001A407B68DA607B68DA68FB785B000121EE
:1002840001FA03F31A437B68DA6000BF0C37BD46FA
:100294005DF8047B704700BF0038024080B485B02D
:1002A40000AF78600B46FB701346BB707B681A681E
:1002B400FB785B00012101FA03F31340FB60FB6848
:1002C400002B18D0BB78002B09D07B685A69FB78C7
:1002D400012101FA03F31A437B685A6109E07B6840
:1002E4005A69FB78012101FA03F3DB431A407B6866
:1002F4005A61012300E0002318461437BD465DF817
:10030400047B704780B483B000AF03460A46FB7198
:100314001346BB711F4B5B6C1E4A43F4804353640A
:100324001D4B1A68FB79012101FA03F31A4913439F
:100334000B60BB79002B13D0174B9A68FB79012112
:1003440001FA03F3144913438B60134BDA68FB7906
:10035400012101FA03F3DB430F491340CB6012E0A0
:100364000D4BDA68FB79012101FA03F30A491343BF
:10037400CB60094B9A68FB79012101FA03F3DB4353
:10038400054913408B6000BF0C37BD465DF8047B04
:10039400704700BF00380240003C014080B485B083
:1003A40000AF0346FB71FB795B09FB73FB7903F038
:1003B4001F03BB73084AFB7B52F82310BB7B01224B
:1003C4009A400548FB7B0A4340F8232000BF1437BA
:1003D400BD465DF8047B704700E100E080B485B061
:1003E40000AF03463960FB71FB799B08FB73FB7913
:1003F40003F00303BB730A4AFB7B023352F8231056
:10040400BB7B9B003A689A400548FB7B0A43023356
:1004140040F8232000BF1437BD465DF8047B7047C5
:100424000038014080B582B000AF00210020FFF702
:1004340069FF0620FFF7B2FF00210020FFF7CEFF7F
:1004440000210120FFF75EFF0720FFF7A7FF00212F
:100454000120FFF7C3FF0123012200211D48FFF7FC
:10046400B7FE0123012201211A48FFF7B1FE01233F
:10047400012202211748FFF7ABFE012301220321C9
:100484001448FFF7A5FE0023002200211248FFF7BD
:100494009FFE0023002201210F48FFF799FE00234D
:1004A4007B6012E07B68D9B20C4B1B781A467B68E0
:1004B40042FA03F3DBB203F00103DBB21A46054848
:1004C400FFF7ECFE7B6801337B607B68032BE9DD7F
:1004D400E5E700BF00040240000002404804002099
:1004E40080B400AF104B1B680F4A23F00203136063
:1004F4000E4B1B785A1C0E4B83FB02139910D31717
:10050400C91A0B469B000B445B00D11ACAB2074BB5
:100514001A70054B1B68044A43F00203136000BFC2
:10052400BD465DF8047B7047003C01404804002050
:100534006766666680B400AF0E4B1B680D4A23F0F5
:10054400010313600C4B1B78013B002B04DB0A4BAB
:100554001B78013BDBB200E00923074A1370054B0B
:100564001B68044A43F00103136000BFBD465DF8F5
:10057400047B7047003C01404804002080B500AF74
:10058400164BD3F88830154A43F47003C2F8883008
:10059400134B1B68124A43F001031360104B0022F3
:1005A4009A600F4B1B680E4A23F0847323F4803344
:1005B40013600B4B0B4A5A60094B1B68084A23F41F
:1005C40080231360064B0022DA6000F00DF8034B21
:1005D4004FF000629A6000BF80BD00BF00ED00E0F4
:1005E400003802401030002480B483B000AF0023F0
:1005F4007B6000233B60354B1B68344A43F48033F3
:100604001360324B1B6803F400333B607B68013397
:100614007B603B68002B03D17B68B3F5A04FF0D11E
:100624002A4B1B6803F40033002B02D001233B60E8
:1006340001E000233B603B68012B40D1234B1B6C42
:10064400224A43F080531364214B1B68204A43F42D
:10065400404313601D4B1D4A9B6893601B4B1B4A10
:100664009B689360194B9B68184A43F480539360CA
:10067400164B184A5A60154B1B68144A43F0807392
:10068400136000BF114B1B6803F00073002BF9D0FB
:10069400114B40F202721A600C4B9B680B4A23F018
:1006A40003039360094B9B68084A43F00203936079
:1006B40000BF064B9B6803F00C03082BF9D100BF65
:1006C4000C37BD465DF8047B704700BF003802401C
:1006D4000070004019544107003C02400D48854613
:1006E4000D480E490E4A002302E0D458C450043386
:1006F400C4188C42F9D30B4A0B4C002301E013605D
:100704000432A242FBD3FFF739FF00F011F8FFF7E0
:1007140089FEFEE700000120000000202C040020D8
:10072400C00800082C04002070040020FEE700002C
:1007340070B50D4E0D4D761BB61006D00024013455
:1007440055F8043B9847A642F9D1094E094D761B4A
:1007540000F0A0F8B61006D00024013455F8043B8C
:100764009847A642F9D170BDB4080008B40800083F
:10077400BC080008B4080008024B13B1024800F09A
:1007840005B87047000000009D07000800230146DB
:100794001A46184600F01EB838B50A4C0A4D641BB8
:1007A400A4100AD004F18043013B05EB8305013C0E
:1007B40055F804399847002CF9D1BDE8384000F0C9
:1007C4006FB800BFC0080008BC080008704700BF2D
:1007D400704700BF2DE9F8432B4D0646286898461C
:1007E4000F469146FFF7F2FF284B1C68D4F84831B6
:1007F400002B3DD05A681F2A0DDC02F1010C16BBF8
:100804000232C3F804C0286843F82270FFF7E0FFFF
:100814000020BDE8F8831E4B7BB34FF4C870AFF3E0
:100824000080034648B3D4F848210021C0E90021E0
:100834004FF0010CC4F848010A46C0F88811C0F80A
:100844008C11002EDCD003EB82010124C1F88890C6
:10085400D3F8880194402043022EC3F88801C1F8DC
:100864000881CDD1D3F88C110C43C3F88C41C7E770
:1008740004F5A673C4F84831BCE72868FFF7A8FF5D
:100884004FF0FF30C5E700BF28040020B00800087F
:1008940000000000F8B500BFF8BC08BC9E467047D5
:0C08A400F8B500BFF8BC08BC9E467047C9
:0408B0000000002024
:0808B4007D070008B9010008EE
:0408BC00950100089A
:1008C00000000000EC02002054030020BC030020C4
:1008D0000000000000000000000000000000000018
:1008E0000000000000000000000000000000000008
:1008F00000000000000000000000000000000000F8
:1009000000000000000000000000000000000000E7
:1009100000000000000000000000000000000000D7
:1009200000000000000000000000000000000000C7
:1009300000000000000000000000000000000000B7
:1009400000000000000000000000000000000000A7
:100950000000000000000000000000000000000097
:100960000000000000000000010000000000000086
:100970000E33CDAB34126DE6ECDE05000B0000004B
:100980000000000000000000000000000000000067
:100990000000000000000000000000000000000057
:1009A0000000000000000000000000000000000047
:1009B0000000000000000000000000000000000037
:0C0CE00000000000000000004C04002098
:04000005080006E108
:00000001FF
