:020000040800F2
:100000000000012085060008D5060008D506000876
:10001000D5060008D5060008D50600080000000037
:10002000000000000000000000000000D5060008ED
:10003000D506000800000000D5060008D506000817
:1000400000000000D5060008D5060008D506000807
:10005000D5060008D5060008D5060008D506000814
:10006000D5060008D5060008D506000800000000E7
:100070000000000000000000000000000000000080
:100080000000000000000000D5060008000000008D
:10009000000000000000000000000000D50600087D
:1000A000D5060008D5060008D5060008D5060008C4
:1000B000D5060008D506000800000000D506000897
:1000C000D5060008D5060008D5060008D5060008A4
:1000D000D50600080000000000000000000000003D
:1000E000D5060008D5060008D50600080000000067
:1000F0000000000000000000000000000000000000
:1001000000000000D506000800000000D506000829
:1001100000000000000000000000000000000000DF
:1001200000000000000000000000000000000000CF
:1001300000000000000000000000000000000000BF
:10014000000000000000000000000000D5060008CC
:10015000000000000000000000000000000000009F
:10016000D5060008D50600080000000000000000C9
:10017000000000000000000000000000000000007F
:1001800000000000D506000800000000000000008C
:04019000D506000888
:1001940010B5054C237833B9044B13B10448AFF3BD
:1001A40000800123237010BD3C04002000000000E7
:1001B4003C08000808B5034B1BB103490348AFF3DF
:1001C400008008BD00000000400400203C08000836
:1001D40080B483B000AF7860084611461A460346DF
:1001E400FB700B46BB7013467B702B4B1A6B7B78F2
:1001F400012101FA03F3284913430B63BB78002B55
:1002040016D07B681A68FB785B00012101FA03F3BE
:100214001A437B681A607B681A68FB785B000133B9
:10022400012101FA03F3DB431A407B681A602CE0D6
:100234007B681A68FB785B00012101FA03F3DB4356
:100244001A407B681A607B681A68FB785B0001338C
:10025400012101FA03F3DB431A407B681A607B68CF
:10026400DA68FB785B00012101FA03F3DB431A40EF
:100274007B68DA607B68DA68FB785B000133012114
:1002840001FA03F31A437B68DA6000BF0C37BD46FA
:100294005DF8047B704700BF0038024080B485B02D
:1002A40000AF78600B46FB701346BB707B681A681E
:1002B400FB785B00012101FA03F31340FB60FB6848
:1002C400002B18D0BB78002B09D07B685A69FB78C7
:1002D400012101FA03F31A437B685A6109E07B6840
:1002E4005A69FB78012101FA03F3DB431A407B6866
:1002F4005A61012300E0002318461437BD465DF817
:10030400047B704780B485B000AF78600B46FB7007
:100314007B681A68FB785B00012101FA03F3134040
:10032400002B0CBF01230023DBB2FB60FB68002B16
:1003340009D07B681A69FB78012101FA03F31340A1
:10034400BB60BB6800E0012318461437BD465DF866
:10035400047B704780B500AF0123012204211448B7
:10036400FFF736FF0123012205211148FFF730FF73
:100374000123012206210E48FFF72AFF0123002250
:1003840007210B48FFF724FF012300220821084816
:10039400FFF71EFF0123002209210548FFF718FF7C
:1003A400012300220A210248FFF712FF00BF80BD8B
:1003B4000004024080B584B000AF0023BB604EE06F
:1003C400BB68DBB20433DBB2012219462848FFF7CD
:1003D40065FF00237B6031E07B68032B02D1BB689F
:1003E400012B27D17B68DBB20733DBB219462048E7
:1003F400FFF788FFF86019E07B68DBB20733DBB2F4
:1004040019461B48FFF77EFFF860FB68002B0DD1EF
:1004140018497A6813465B001344CA18BB6813442E
:100424001A78154B1A7000F035F804E0FB68002BBD
:10043400E2D100E000BF7B6801337B6004231A46ED
:100444007B689342C8DBBB68DBB20433DBB20022B7
:1004540019460748FFF722FFBB680133BB6003233B
:100464001A46BB689342ABDB00BF1037BD4680BD64
:1004740000040240000000205804002080B400AFB3
:10048400034B1B781846BD465DF8047B704700BFDC
:100494005804002080B582B000AFFFF7EFFF034699
:1004A400FB7000237B6010E07B68D9B201227B687B
:1004B40002FA03F3DAB2FB781340DBB21A460648B9
:1004C400FFF7ECFE7B6801337B607B68032BEBDD7D
:1004D40000BF0837BD4680BD0004024080B500AFB0
:1004E4000123012200210D48FFF772FE012301229E
:1004F40001210A48FFF76CFE01230122022107486B
:10050400FFF766FE0123012203210448FFF760FE82
:10051400FFF720FFFFF74EFFFCE700BF0004024097
:1005240080B500AF164BD3F88830154A43F47003F6
:10053400C2F88830134B1B68124A43F0010313605E
:10054400104B00229A600F4B1B680E4A23F08473F1
:1005540023F4803313600B4B0B4A5A60094B1B681E
:10056400084A23F480231360064B0022DA6000F06B
:100574000DF8034B4FF000629A6000BF80BD00BFCE
:1005840000ED00E0003802401030002480B483B055
:1005940000AF00237B6000233B60354B1B68344A6B
:1005A40043F480331360324B1B6803F400333B6025
:1005B4007B6801337B603B68002B03D17B68B3F518
:1005C400A04FF0D12A4B1B6803F40033002B02D058
:1005D40001233B6001E000233B603B68012B40D1D9
:1005E400234B1B6C224A43F080531364214B1B683A
:1005F400204A43F4404313601D4B1D4A9B6893609B
:100604001B4B1B4A9B689360194B9B68184A43F425
:1006140080539360164B184A5A60154B1B68144A52
:1006240043F08073136000BF114B1B6803F0007329
:10063400002BF9D0114B40F202721A600C4B9B68EC
:100644000B4A23F003039360094B9B68084A43F069
:100654000203936000BF064B9B6803F00C03082B56
:10066400F9D100BF0C37BD465DF8047B704700BF6D
:10067400003802400070004019544107003C024019
:100684000D4885460D480E490E4A002302E0D45811
:10069400C4500433C4188C42F9D30B4A0B4C0023C6
:1006A40001E013600432A242FBD3FFF739FF00F0EC
:1006B40011F8FFF713FFFEE70000012000000020FF
:1006C4003C040020640800083C040020800400204E
:1006D400FEE7000070B50D4E0D4D761BB61006D02A
:1006E4000024013455F8043B9847A642F9D1094E39
:1006F400094D761B00F0A0F8B61006D00024013492
:1007040055F8043B9847A642F9D170BD5808000833
:10071400580800086008000858080008024B13B184
:10072400024800F005B870470000000041070008C7
:10073400002301461A46184600F01EB838B50A4C84
:100744000A4D641BA4100AD004F18043013B05EB5D
:100754008305013C55F804399847002CF9D1BDE8CC
:10076400384000F06FB800BF640800086008000853
:10077400704700BF704700BF2DE9F8432B4D064674
:10078400286898460F469146FFF7F2FF284B1C68ED
:10079400D4F84831002B3DD05A681F2A0DDC02F1F1
:1007A400010C16BB0232C3F804C0286843F8227057
:1007B400FFF7E0FF0020BDE8F8831E4B7BB34FF446
:1007C400C870AFF30080034648B3D4F84821002131
:1007D400C0E900214FF0010CC4F848010A46C0F8F2
:1007E4008811C0F88C11002EDCD003EB82010124A7
:1007F400C1F88890D3F8880194402043022EC3F8AE
:100804008801C1F80881CDD1D3F88C110C43C3F809
:100814008C41C7E704F5A673C4F84831BCE72868DF
:10082400FFF7A8FF4FF0FF30C5E700BF38040020F2
:100834005408000800000000F8B500BFF8BC08BC6C
:100844009E467047F8B500BFF8BC08BC9E4670478A
:040854001000002070
:0808580021070008B9010008A6
:0408600095010008F6
:100864000102030405060708092A0023000000000A
:1008740000000000FC02002064030020CC030020E0
:100884000000000000000000000000000000000064
:100894000000000000000000000000000000000054
:1008A4000000000000000000000000000000000044
:1008B4000000000000000000000000000000000034
:1008C4000000000000000000000000000000000024
:1008D4000000000000000000000000000000000014
:1008E4000000000000000000000000000000000004
:1008F40000000000000000000000000000000000F4
:1009040000000000000000000000000000000000E3
:1009140000000000000000000100000000000000D2
:100924000E33CDAB34126DE6ECDE05000B00000097
:1009340000000000000000000000000000000000B3
:1009440000000000000000000000000000000000A3
:100954000000000000000000000000000000000093
:100964000000000000000000000000000000000083
:0C0C940000000000000000005C040020D4
:040000050800068564
:00000001FF
